{
  "address": "0xe7f1725E7734CE288F8367e1Bb143E90bb3F0512",
  "abi": [
    {
      "inputs": [
        {
          "internalType": "address",
          "name": "priceFeedAddress",
          "type": "address"
        }
      ],
      "stateMutability": "nonpayable",
      "type": "constructor"
    },
    {
      "inputs": [],
      "name": "NotOwner",
      "type": "error"
    },
    {
      "stateMutability": "payable",
      "type": "fallback"
    },
    {
      "inputs": [],
      "name": "MINIMUM_USD",
      "outputs": [
        {
          "internalType": "uint256",
          "name": "",
          "type": "uint256"
        }
      ],
      "stateMutability": "view",
      "type": "function"
    },
    {
      "inputs": [
        {
          "internalType": "address",
          "name": "",
          "type": "address"
        }
      ],
      "name": "amountFunded",
      "outputs": [
        {
          "internalType": "uint256",
          "name": "",
          "type": "uint256"
        }
      ],
      "stateMutability": "view",
      "type": "function"
    },
    {
      "inputs": [],
      "name": "fund",
      "outputs": [],
      "stateMutability": "payable",
      "type": "function"
    },
    {
      "inputs": [
        {
          "internalType": "uint256",
          "name": "",
          "type": "uint256"
        }
      ],
      "name": "funders",
      "outputs": [
        {
          "internalType": "address",
          "name": "",
          "type": "address"
        }
      ],
      "stateMutability": "view",
      "type": "function"
    },
    {
      "inputs": [
        {
          "internalType": "address",
          "name": "_funder",
          "type": "address"
        }
      ],
      "name": "getAddressToAmountFunded",
      "outputs": [
        {
          "internalType": "uint256",
          "name": "",
          "type": "uint256"
        }
      ],
      "stateMutability": "view",
      "type": "function"
    },
    {
      "inputs": [
        {
          "internalType": "address",
          "name": "_funder",
          "type": "address"
        }
      ],
      "name": "getAmountFunded",
      "outputs": [
        {
          "internalType": "uint256",
          "name": "",
          "type": "uint256"
        }
      ],
      "stateMutability": "view",
      "type": "function"
    },
    {
      "inputs": [
        {
          "internalType": "uint256",
          "name": "_index",
          "type": "uint256"
        }
      ],
      "name": "getFunder",
      "outputs": [
        {
          "internalType": "address",
          "name": "",
          "type": "address"
        }
      ],
      "stateMutability": "view",
      "type": "function"
    },
    {
      "inputs": [],
      "name": "getOwner",
      "outputs": [
        {
          "internalType": "address",
          "name": "",
          "type": "address"
        }
      ],
      "stateMutability": "view",
      "type": "function"
    },
    {
      "inputs": [],
      "name": "getPriceFeed",
      "outputs": [
        {
          "internalType": "contract AggregatorV3Interface",
          "name": "",
          "type": "address"
        }
      ],
      "stateMutability": "view",
      "type": "function"
    },
    {
      "inputs": [],
      "name": "i_owner",
      "outputs": [
        {
          "internalType": "address",
          "name": "",
          "type": "address"
        }
      ],
      "stateMutability": "view",
      "type": "function"
    },
    {
      "inputs": [],
      "name": "priceFeed",
      "outputs": [
        {
          "internalType": "contract AggregatorV3Interface",
          "name": "",
          "type": "address"
        }
      ],
      "stateMutability": "view",
      "type": "function"
    },
    {
      "inputs": [],
      "name": "withdraw",
      "outputs": [],
      "stateMutability": "nonpayable",
      "type": "function"
    },
    {
      "stateMutability": "payable",
      "type": "receive"
    }
  ],
  "transactionHash": "0x6f7ec860f90c7c17af8975d140e496ae02bd435910a90999724664c4ff7594fc",
  "args": [
    "0x5FbDB2315678afecb367f032d93F642f64180aa3"
  ],
  "numDeployments": 1,
  "solcInputHash": "8e25df033601baa23d4943b43b531aef",
  "bytecode": "0x60a06040523480156200001157600080fd5b50604051620011233803806200112383398181016040528101906200003791906200011d565b3373ffffffffffffffffffffffffffffffffffffffff1660808173ffffffffffffffffffffffffffffffffffffffff168152505080600260006101000a81548173ffffffffffffffffffffffffffffffffffffffff021916908373ffffffffffffffffffffffffffffffffffffffff160217905550506200014f565b600080fd5b600073ffffffffffffffffffffffffffffffffffffffff82169050919050565b6000620000e582620000b8565b9050919050565b620000f781620000d8565b81146200010357600080fd5b50565b6000815190506200011781620000ec565b92915050565b600060208284031215620001365762000135620000b3565b5b6000620001468482850162000106565b91505092915050565b608051610faa6200017960003960008181610459015281816106c001526107a00152610faa6000f3fe6080604052600436106100ab5760003560e01c8063a48b455511610064578063a48b4555146101c4578063b60d428814610201578063d7b4750c1461020b578063dba6335f14610248578063dc0d3dff14610273578063deaf2cf0146102b0576100ba565b80630343fb25146100c45780633ccfd60b146101015780636b69a59214610118578063741bef1a14610143578063893d20e81461016e5780639e87a5cd14610199576100ba565b366100ba576100b86102ed565b005b6100c26102ed565b005b3480156100d057600080fd5b506100eb60048036038101906100e691906109f0565b61040e565b6040516100f89190610a36565b60405180910390f35b34801561010d57600080fd5b50610116610457565b005b34801561012457600080fd5b5061012d610691565b60405161013a9190610a36565b60405180910390f35b34801561014f57600080fd5b50610158610696565b6040516101659190610ab0565b60405180910390f35b34801561017a57600080fd5b506101836106bc565b6040516101909190610ada565b60405180910390f35b3480156101a557600080fd5b506101ae6106e4565b6040516101bb9190610ab0565b60405180910390f35b3480156101d057600080fd5b506101eb60048036038101906101e691906109f0565b61070e565b6040516101f89190610a36565b60405180910390f35b6102096102ed565b005b34801561021757600080fd5b50610232600480360381019061022d9190610b21565b610757565b60405161023f9190610ada565b60405180910390f35b34801561025457600080fd5b5061025d61079e565b60405161026a9190610ada565b60405180910390f35b34801561027f57600080fd5b5061029a60048036038101906102959190610b21565b6107c2565b6040516102a79190610ada565b60405180910390f35b3480156102bc57600080fd5b506102d760048036038101906102d291906109f0565b610801565b6040516102e49190610a36565b60405180910390f35b6001610324600260009054906101000a900473ffffffffffffffffffffffffffffffffffffffff163461081990919063ffffffff16565b1015610365576040517f08c379a000000000000000000000000000000000000000000000000000000000815260040161035c90610bab565b60405180910390fd5b6000339080600181540180825580915050600190039060005260206000200160009091909190916101000a81548173ffffffffffffffffffffffffffffffffffffffff021916908373ffffffffffffffffffffffffffffffffffffffff16021790555034600160003373ffffffffffffffffffffffffffffffffffffffff1673ffffffffffffffffffffffffffffffffffffffff16815260200190815260200160002081905550565b6000600160008373ffffffffffffffffffffffffffffffffffffffff1673ffffffffffffffffffffffffffffffffffffffff168152602001908152602001600020549050919050565b7f000000000000000000000000000000000000000000000000000000000000000073ffffffffffffffffffffffffffffffffffffffff163373ffffffffffffffffffffffffffffffffffffffff16146104dc576040517f30cd747100000000000000000000000000000000000000000000000000000000815260040160405180910390fd5b60005b6000805490508110156105815760006001600080848154811061050557610504610bcb565b5b9060005260206000200160009054906101000a900473ffffffffffffffffffffffffffffffffffffffff1673ffffffffffffffffffffffffffffffffffffffff1673ffffffffffffffffffffffffffffffffffffffff16815260200190815260200160002081905550808061057990610c29565b9150506104df565b50600067ffffffffffffffff81111561059d5761059c610c71565b5b6040519080825280602002602001820160405280156105cb5781602001602082028036833780820191505090505b50600090805190602001906105e19291906108e6565b5060003373ffffffffffffffffffffffffffffffffffffffff164760405161060890610cd1565b60006040518083038185875af1925050503d8060008114610645576040519150601f19603f3d011682016040523d82523d6000602084013e61064a565b606091505b505090508061068e576040517f08c379a000000000000000000000000000000000000000000000000000000000815260040161068590610d32565b60405180910390fd5b50565b600181565b600260009054906101000a900473ffffffffffffffffffffffffffffffffffffffff1681565b60007f0000000000000000000000000000000000000000000000000000000000000000905090565b6000600260009054906101000a900473ffffffffffffffffffffffffffffffffffffffff16905090565b6000600160008373ffffffffffffffffffffffffffffffffffffffff1673ffffffffffffffffffffffffffffffffffffffff168152602001908152602001600020549050919050565b600080828154811061076c5761076b610bcb565b5b9060005260206000200160009054906101000a900473ffffffffffffffffffffffffffffffffffffffff169050919050565b7f000000000000000000000000000000000000000000000000000000000000000081565b600081815481106107d257600080fd5b906000526020600020016000915054906101000a900473ffffffffffffffffffffffffffffffffffffffff1681565b60016020528060005260406000206000915090505481565b60008061082583610855565b90506000670de0b6b3a7640000858361083e9190610d52565b6108489190610dc3565b9050809250505092915050565b6000808273ffffffffffffffffffffffffffffffffffffffff1663feaf968c6040518163ffffffff1660e01b815260040160a060405180830381865afa1580156108a3573d6000803e3d6000fd5b505050506040513d601f19601f820116820180604052508101906108c79190610e81565b5050509150506402540be400816108de9190610efc565b915050919050565b82805482825590600052602060002090810192821561095f579160200282015b8281111561095e5782518260006101000a81548173ffffffffffffffffffffffffffffffffffffffff021916908373ffffffffffffffffffffffffffffffffffffffff16021790555091602001919060010190610906565b5b50905061096c9190610970565b5090565b5b80821115610989576000816000905550600101610971565b5090565b600080fd5b600073ffffffffffffffffffffffffffffffffffffffff82169050919050565b60006109bd82610992565b9050919050565b6109cd816109b2565b81146109d857600080fd5b50565b6000813590506109ea816109c4565b92915050565b600060208284031215610a0657610a0561098d565b5b6000610a14848285016109db565b91505092915050565b6000819050919050565b610a3081610a1d565b82525050565b6000602082019050610a4b6000830184610a27565b92915050565b6000819050919050565b6000610a76610a71610a6c84610992565b610a51565b610992565b9050919050565b6000610a8882610a5b565b9050919050565b6000610a9a82610a7d565b9050919050565b610aaa81610a8f565b82525050565b6000602082019050610ac56000830184610aa1565b92915050565b610ad4816109b2565b82525050565b6000602082019050610aef6000830184610acb565b92915050565b610afe81610a1d565b8114610b0957600080fd5b50565b600081359050610b1b81610af5565b92915050565b600060208284031215610b3757610b3661098d565b5b6000610b4584828501610b0c565b91505092915050565b600082825260208201905092915050565b7f596f7520646964206e6f7420456e6f7567682053656e64000000000000000000600082015250565b6000610b95601783610b4e565b9150610ba082610b5f565b602082019050919050565b60006020820190508181036000830152610bc481610b88565b9050919050565b7f4e487b7100000000000000000000000000000000000000000000000000000000600052603260045260246000fd5b7f4e487b7100000000000000000000000000000000000000000000000000000000600052601160045260246000fd5b6000610c3482610a1d565b91507fffffffffffffffffffffffffffffffffffffffffffffffffffffffffffffffff8203610c6657610c65610bfa565b5b600182019050919050565b7f4e487b7100000000000000000000000000000000000000000000000000000000600052604160045260246000fd5b600081905092915050565b50565b6000610cbb600083610ca0565b9150610cc682610cab565b600082019050919050565b6000610cdc82610cae565b9150819050919050565b7f446964206e6f742073656e640000000000000000000000000000000000000000600082015250565b6000610d1c600c83610b4e565b9150610d2782610ce6565b602082019050919050565b60006020820190508181036000830152610d4b81610d0f565b9050919050565b6000610d5d82610a1d565b9150610d6883610a1d565b9250828202610d7681610a1d565b91508282048414831517610d8d57610d8c610bfa565b5b5092915050565b7f4e487b7100000000000000000000000000000000000000000000000000000000600052601260045260246000fd5b6000610dce82610a1d565b9150610dd983610a1d565b925082610de957610de8610d94565b5b828204905092915050565b600069ffffffffffffffffffff82169050919050565b610e1381610df4565b8114610e1e57600080fd5b50565b600081519050610e3081610e0a565b92915050565b6000819050919050565b610e4981610e36565b8114610e5457600080fd5b50565b600081519050610e6681610e40565b92915050565b600081519050610e7b81610af5565b92915050565b600080600080600060a08688031215610e9d57610e9c61098d565b5b6000610eab88828901610e21565b9550506020610ebc88828901610e57565b9450506040610ecd88828901610e6c565b9350506060610ede88828901610e6c565b9250506080610eef88828901610e21565b9150509295509295909350565b6000610f0782610e36565b9150610f1283610e36565b9250828202610f2081610e36565b91507f80000000000000000000000000000000000000000000000000000000000000008414600084121615610f5857610f57610bfa565b5b8282058414831517610f6d57610f6c610bfa565b5b509291505056fea26469706673582212206c6b89cf37ba629e01c02da04b6b96dc6c006fffeddf61f4ac6091210f7121da64736f6c63430008130033",
  "devdoc": {
    "author": "Muhammad Fahad",
    "details": "This implement priceFeed as library",
    "kind": "dev",
    "methods": {},
    "title": "FundMe contract to fund and withdraw funds",
    "version": 1
  },
  "userdoc": {
    "kind": "user",
    "methods": {},
    "notice": "this contract is demo to a funding contract",
    "version": 1
  },
  "storageLayout": {
    "storage": [
      {
        "astId": 62,
        "contract": "contracts/FundMe.sol:FundMe",
        "label": "funders",
        "offset": 0,
        "slot": "0",
        "type": "t_array(t_address)dyn_storage"
      },
      {
        "astId": 66,
        "contract": "contracts/FundMe.sol:FundMe",
        "label": "amountFunded",
        "offset": 0,
        "slot": "1",
        "type": "t_mapping(t_address,t_uint256)"
      },
      {
        "astId": 69,
        "contract": "contracts/FundMe.sol:FundMe",
        "label": "priceFeed",
        "offset": 0,
        "slot": "2",
        "type": "t_contract(AggregatorV3Interface)45"
      }
    ],
    "types": {
      "t_address": {
        "encoding": "inplace",
        "label": "address",
        "numberOfBytes": "20"
      },
      "t_array(t_address)dyn_storage": {
        "base": "t_address",
        "encoding": "dynamic_array",
        "label": "address[]",
        "numberOfBytes": "32"
      },
      "t_contract(AggregatorV3Interface)45": {
        "encoding": "inplace",
        "label": "contract AggregatorV3Interface",
        "numberOfBytes": "20"
      },
      "t_mapping(t_address,t_uint256)": {
        "encoding": "mapping",
        "key": "t_address",
        "label": "mapping(address => uint256)",
        "numberOfBytes": "32",
        "value": "t_uint256"
      },
      "t_uint256": {
        "encoding": "inplace",
        "label": "uint256",
        "numberOfBytes": "32"
      }
    }
  }
}